:100000000C9472000C947C000C947C000C947C008A
:100010000C947C000C947C000C947C000C947C0070
:100020000C947C000C947C000C947C000C947C0060
:100030000C947C000C947C000C947C000C947C0050
:100040000C947C000C947C000C947C000C947C0040
:100050000C947C008A00A300BC00D500ED00ED00EC
:10006000ED00ED00ED00ED00ED00ED00ED00ED0028
:10007000ED00ED00ED00ED00ED00ED00ED00ED0018
:10008000ED00ED00ED00ED00ED00ED00ED00ED0008
:10009000ED00ED008A00A300BC00D500FA001301BA
:1000A0002C0145015D015D015D015D015D015D01A9
:1000B0005D015D015D015D015D015D015D015D0150
:1000C0005D015D015D015D015D015D015D015D0140
:1000D0005D015D015D015D015D015D01FA001301DE
:1000E0002C01450111241FBECFE5D8E0DEBFCDBFF6
:1000F0000E944F020C94AD020C94000090E0FC01B1
:10010000E154F109E432F10508F067C0E65DFF4F04
:100110000C94A702413059F42AB381E090E002C068
:10012000880F991F6A95E2F7822B8ABB08952AB33C
:1001300081E090E002C0880F991F6A95E2F78095F0
:1001400082238ABB0895413059F427B381E090E0BF
:1001500002C0880F991F6A95E2F7822B87BB08952A
:1001600027B381E090E002C0880F991F6A95E2F7FB
:100170008095822387BB0895413059F424B381E0F0
:1001800090E002C0880F991F6A95E2F7822B84BB2A
:10019000089524B381E090E002C0880F991F6A950A
:1001A000E2F78095822384BB0895413059F421B34E
:1001B00081E090E002C0880F991F6A95E2F7822BD8
:1001C00081BB089521B381E090E002C0880F991FA0
:1001D0006A95E2F78095822381BB089590E0FC0147
:1001E000E154F109E432F10508F067C0E25BFF4F2A
:1001F0000C94A702413059F42BB381E090E002C087
:10020000880F991F6A95E2F7822B8BBB08952BB359
:1002100081E090E002C0880F991F6A95E2F780950F
:1002200082238BBB0895413059F428B381E090E0DC
:1002300002C0880F991F6A95E2F7822B88BB089548
:1002400028B381E090E002C0880F991F6A95E2F719
:100250008095822388BB0895413059F425B381E00D
:1002600090E002C0880F991F6A95E2F7822B85BB48
:10027000089525B381E090E002C0880F991F6A9528
:10028000E2F78095822385BB0895413059F422B36B
:1002900081E090E002C0880F991F6A95E2F7822BF7
:1002A00082BB089522B381E090E002C0880F991FBD
:1002B0006A95E2F78095822382BB08956295607FFC
:1002C000823481F018F4813431F00895833489F058
:1002D0008434B1F008958BB38F708BBB8BB3682BD4
:1002E0006BBB089588B38F7088BB88B3682B68BBDD
:1002F000089585B38F7085BB85B3682B65BB089562
:1003000082B38F7082BB82B3682B62BB089541E0D9
:1003100060E082E40E94EE008FE99FE00197F1F730
:1003200000C0000040E060E082E40E94EE008FE93F
:100330009FE00197F1F700C000000895CF93C82F08
:10034000682F62956F7070E081E40E945E0140E06A
:1003500061E082E40E94EE000E9487016C2F70E051
:1003600081E40E945E0140E061E082E40E94EE00D0
:100370000E9487018FEC97E00197F1F700C0000021
:10038000CF9108952FEF81EE94E02150804090406E
:10039000E1F700C0000041E064E081E40E947E00DB
:1003A00041E065E081E40E947E0041E066E081E496
:1003B0000E947E0041E067E081E40E947E0041E00F
:1003C00060E082E40E947E0041E061E082E40E94FD
:1003D0007E0041E062E082E40E947E0040E062E054
:1003E00082E40E94EE0082E00E949E018FE19EE482
:1003F0000197F1F700C0000088E20E949E018FEC97
:1004000097E00197F1F700C000008EE00E949E0186
:100410008FEC97E00197F1F700C0000081E00E94A7
:100420009E018FEC97E00197F1F700C0000086E095
:100430000E949E018FEC97E00197F1F700C0000049
:100440000895CF93C82F682F62956F7070E081E494
:100450000E945E0141E061E082E40E94EE000E94A1
:1004600087016C2F70E081E40E945E0141E061E051
:1004700082E40E94EE000E9487018FEC97E00197D2
:10048000F1F700C00000CF91089581E00E949E0125
:100490008FE19EE40197F1F700C0000008950E94EB
:1004A000C20160E875E280E090E00E945E020E9476
:1004B00045020E9481020E942102FBCFDC01CB0198
:1004C000880F991FAA1FBB1F880F991FAA1FBB1F48
:1004D0009C01AD01220F331F441F551F220F331FF4
:1004E000441F551F60E072E18AE790E00E94850298
:1004F0002150310930BD29B9539A549A86E880BDFC
:1005000008955F9BFECF8CB10895A1E21A2EAA1B1D
:10051000BB1BFD010DC0AA1FBB1FEE1FFF1FA217B3
:10052000B307E407F50720F0A21BB30BE40BF50BB0
:10053000661F771F881F991F1A9469F76095709539
:10054000809590959B01AC01BD01CF010895EE0F00
:0E055000FF1F0590F491E02D0994F894FFCF61
:00000001FF
